{
  "_format": "hh-sol-artifact-1",
  "contractName": "TreasurePool",
  "sourceName": "contracts/treasure/TreasurePool.sol",
  "abi": [
    {
      "inputs": [
        {
          "internalType": "address",
          "name": "_switchboardVRF",
          "type": "address"
        },
        {
          "internalType": "uint256",
          "name": "_platformFeeRate",
          "type": "uint256"
        },
        {
          "internalType": "address",
          "name": "_platformFeeReceiver",
          "type": "address"
        }
      ],
      "stateMutability": "nonpayable",
      "type": "constructor"
    },
    {
      "anonymous": false,
      "inputs": [
        {
          "indexed": true,
          "internalType": "uint256",
          "name": "poolId",
          "type": "uint256"
        },
        {
          "indexed": false,
          "internalType": "address[]",
          "name": "winners",
          "type": "address[]"
        },
        {
          "indexed": false,
          "internalType": "uint256",
          "name": "prizePerWinner",
          "type": "uint256"
        }
      ],
      "name": "DrawCompleted",
      "type": "event"
    },
    {
      "anonymous": false,
      "inputs": [
        {
          "indexed": true,
          "internalType": "uint256",
          "name": "poolId",
          "type": "uint256"
        },
        {
          "indexed": false,
          "internalType": "bytes32",
          "name": "requestId",
          "type": "bytes32"
        }
      ],
      "name": "DrawStarted",
      "type": "event"
    },
    {
      "anonymous": false,
      "inputs": [
        {
          "indexed": true,
          "internalType": "uint256",
          "name": "poolId",
          "type": "uint256"
        },
        {
          "indexed": false,
          "internalType": "uint256",
          "name": "price",
          "type": "uint256"
        },
        {
          "indexed": false,
          "internalType": "uint256",
          "name": "totalShares",
          "type": "uint256"
        },
        {
          "indexed": false,
          "internalType": "uint256",
          "name": "winnerCount",
          "type": "uint256"
        },
        {
          "indexed": false,
          "internalType": "uint256",
          "name": "endTime",
          "type": "uint256"
        }
      ],
      "name": "PoolCreated",
      "type": "event"
    },
    {
      "anonymous": false,
      "inputs": [
        {
          "indexed": true,
          "internalType": "uint256",
          "name": "poolId",
          "type": "uint256"
        },
        {
          "indexed": true,
          "internalType": "address",
          "name": "winner",
          "type": "address"
        },
        {
          "indexed": false,
          "internalType": "uint256",
          "name": "amount",
          "type": "uint256"
        }
      ],
      "name": "PrizeClaimed",
      "type": "event"
    },
    {
      "anonymous": false,
      "inputs": [
        {
          "indexed": true,
          "internalType": "uint256",
          "name": "poolId",
          "type": "uint256"
        },
        {
          "indexed": true,
          "internalType": "address",
          "name": "buyer",
          "type": "address"
        },
        {
          "indexed": false,
          "internalType": "uint256",
          "name": "ticketIndex",
          "type": "uint256"
        }
      ],
      "name": "TicketPurchased",
      "type": "event"
    },
    {
      "inputs": [
        {
          "internalType": "uint256",
          "name": "poolId",
          "type": "uint256"
        }
      ],
      "name": "claimPrize",
      "outputs": [],
      "stateMutability": "nonpayable",
      "type": "function"
    },
    {
      "inputs": [
        {
          "internalType": "uint256",
          "name": "price",
          "type": "uint256"
        },
        {
          "internalType": "uint256",
          "name": "totalShares",
          "type": "uint256"
        },
        {
          "internalType": "uint256",
          "name": "duration",
          "type": "uint256"
        },
        {
          "internalType": "uint256",
          "name": "winnerCount",
          "type": "uint256"
        }
      ],
      "name": "createPool",
      "outputs": [
        {
          "internalType": "uint256",
          "name": "",
          "type": "uint256"
        }
      ],
      "stateMutability": "nonpayable",
      "type": "function"
    },
    {
      "inputs": [
        {
          "internalType": "uint256",
          "name": "poolId",
          "type": "uint256"
        }
      ],
      "name": "executeDraw",
      "outputs": [],
      "stateMutability": "payable",
      "type": "function"
    },
    {
      "inputs": [
        {
          "internalType": "bytes32",
          "name": "requestId",
          "type": "bytes32"
        },
        {
          "internalType": "uint256",
          "name": "randomness",
          "type": "uint256"
        }
      ],
      "name": "fulfillRandomness",
      "outputs": [],
      "stateMutability": "nonpayable",
      "type": "function"
    },
    {
      "inputs": [
        {
          "internalType": "uint256",
          "name": "poolId",
          "type": "uint256"
        },
        {
          "internalType": "uint256",
          "name": "index",
          "type": "uint256"
        }
      ],
      "name": "getDisplayCode",
      "outputs": [
        {
          "internalType": "bytes8",
          "name": "",
          "type": "bytes8"
        }
      ],
      "stateMutability": "pure",
      "type": "function"
    },
    {
      "inputs": [
        {
          "internalType": "uint256",
          "name": "poolId",
          "type": "uint256"
        }
      ],
      "name": "getPool",
      "outputs": [
        {
          "components": [
            {
              "internalType": "uint256",
              "name": "id",
              "type": "uint256"
            },
            {
              "internalType": "uint256",
              "name": "price",
              "type": "uint256"
            },
            {
              "internalType": "uint256",
              "name": "totalShares",
              "type": "uint256"
            },
            {
              "internalType": "uint256",
              "name": "soldShares",
              "type": "uint256"
            },
            {
              "internalType": "uint256",
              "name": "winnerCount",
              "type": "uint256"
            },
            {
              "internalType": "uint256",
              "name": "endTime",
              "type": "uint256"
            },
            {
              "internalType": "enum TreasurePool.PoolStatus",
              "name": "status",
              "type": "uint8"
            },
            {
              "internalType": "bytes32",
              "name": "randomnessRequestId",
              "type": "bytes32"
            },
            {
              "internalType": "uint256",
              "name": "prizePerWinner",
              "type": "uint256"
            },
            {
              "internalType": "address[]",
              "name": "winners",
              "type": "address[]"
            }
          ],
          "internalType": "struct TreasurePool.Pool",
          "name": "",
          "type": "tuple"
        }
      ],
      "stateMutability": "view",
      "type": "function"
    },
    {
      "inputs": [
        {
          "internalType": "address",
          "name": "user",
          "type": "address"
        },
        {
          "internalType": "uint256",
          "name": "poolId",
          "type": "uint256"
        }
      ],
      "name": "getUserTicket",
      "outputs": [
        {
          "internalType": "uint256",
          "name": "",
          "type": "uint256"
        }
      ],
      "stateMutability": "view",
      "type": "function"
    },
    {
      "inputs": [
        {
          "internalType": "uint256",
          "name": "",
          "type": "uint256"
        },
        {
          "internalType": "address",
          "name": "",
          "type": "address"
        }
      ],
      "name": "hasClaimed",
      "outputs": [
        {
          "internalType": "bool",
          "name": "",
          "type": "bool"
        }
      ],
      "stateMutability": "view",
      "type": "function"
    },
    {
      "inputs": [
        {
          "internalType": "uint256",
          "name": "",
          "type": "uint256"
        },
        {
          "internalType": "address",
          "name": "",
          "type": "address"
        }
      ],
      "name": "hasParticipated",
      "outputs": [
        {
          "internalType": "bool",
          "name": "",
          "type": "bool"
        }
      ],
      "stateMutability": "view",
      "type": "function"
    },
    {
      "inputs": [
        {
          "internalType": "address",
          "name": "user",
          "type": "address"
        },
        {
          "internalType": "uint256",
          "name": "poolId",
          "type": "uint256"
        }
      ],
      "name": "isWinner",
      "outputs": [
        {
          "internalType": "bool",
          "name": "",
          "type": "bool"
        }
      ],
      "stateMutability": "view",
      "type": "function"
    },
    {
      "inputs": [
        {
          "internalType": "uint256",
          "name": "poolId",
          "type": "uint256"
        }
      ],
      "name": "joinPool",
      "outputs": [],
      "stateMutability": "payable",
      "type": "function"
    },
    {
      "inputs": [],
      "name": "owner",
      "outputs": [
        {
          "internalType": "address",
          "name": "",
          "type": "address"
        }
      ],
      "stateMutability": "view",
      "type": "function"
    },
    {
      "inputs": [],
      "name": "platformFeeRate",
      "outputs": [
        {
          "internalType": "uint256",
          "name": "",
          "type": "uint256"
        }
      ],
      "stateMutability": "view",
      "type": "function"
    },
    {
      "inputs": [],
      "name": "platformFeeReceiver",
      "outputs": [
        {
          "internalType": "address",
          "name": "",
          "type": "address"
        }
      ],
      "stateMutability": "view",
      "type": "function"
    },
    {
      "inputs": [],
      "name": "poolCounter",
      "outputs": [
        {
          "internalType": "uint256",
          "name": "",
          "type": "uint256"
        }
      ],
      "stateMutability": "view",
      "type": "function"
    },
    {
      "inputs": [
        {
          "internalType": "uint256",
          "name": "",
          "type": "uint256"
        }
      ],
      "name": "pools",
      "outputs": [
        {
          "internalType": "uint256",
          "name": "id",
          "type": "uint256"
        },
        {
          "internalType": "uint256",
          "name": "price",
          "type": "uint256"
        },
        {
          "internalType": "uint256",
          "name": "totalShares",
          "type": "uint256"
        },
        {
          "internalType": "uint256",
          "name": "soldShares",
          "type": "uint256"
        },
        {
          "internalType": "uint256",
          "name": "winnerCount",
          "type": "uint256"
        },
        {
          "internalType": "uint256",
          "name": "endTime",
          "type": "uint256"
        },
        {
          "internalType": "enum TreasurePool.PoolStatus",
          "name": "status",
          "type": "uint8"
        },
        {
          "internalType": "bytes32",
          "name": "randomnessRequestId",
          "type": "bytes32"
        },
        {
          "internalType": "uint256",
          "name": "prizePerWinner",
          "type": "uint256"
        }
      ],
      "stateMutability": "view",
      "type": "function"
    },
    {
      "inputs": [
        {
          "internalType": "bytes32",
          "name": "",
          "type": "bytes32"
        }
      ],
      "name": "requestIdToPoolId",
      "outputs": [
        {
          "internalType": "uint256",
          "name": "",
          "type": "uint256"
        }
      ],
      "stateMutability": "view",
      "type": "function"
    },
    {
      "inputs": [
        {
          "internalType": "uint256",
          "name": "newRate",
          "type": "uint256"
        }
      ],
      "name": "setPlatformFeeRate",
      "outputs": [],
      "stateMutability": "nonpayable",
      "type": "function"
    },
    {
      "inputs": [
        {
          "internalType": "address",
          "name": "newReceiver",
          "type": "address"
        }
      ],
      "name": "setPlatformFeeReceiver",
      "outputs": [],
      "stateMutability": "nonpayable",
      "type": "function"
    },
    {
      "inputs": [],
      "name": "switchboardVRF",
      "outputs": [
        {
          "internalType": "address",
          "name": "",
          "type": "address"
        }
      ],
      "stateMutability": "view",
      "type": "function"
    },
    {
      "inputs": [
        {
          "internalType": "uint256",
          "name": "",
          "type": "uint256"
        },
        {
          "internalType": "uint256",
          "name": "",
          "type": "uint256"
        }
      ],
      "name": "ticketOwners",
      "outputs": [
        {
          "internalType": "address",
          "name": "",
          "type": "address"
        }
      ],
      "stateMutability": "view",
      "type": "function"
    },
    {
      "inputs": [
        {
          "internalType": "address",
          "name": "newOwner",
          "type": "address"
        }
      ],
      "name": "transferOwnership",
      "outputs": [],
      "stateMutability": "nonpayable",
      "type": "function"
    },
    {
      "inputs": [],
      "name": "withdrawPlatformFee",
      "outputs": [],
      "stateMutability": "nonpayable",
      "type": "function"
    }
  ],
  "bytecode": "0x60806040523480156200001157600080fd5b5060405162001e2038038062001e20833981016040819052620000349162000190565b6001600160a01b038316620000905760405162461bcd60e51b815260206004820152601360248201527f496e76616c69642056524620616464726573730000000000000000000000000060448201526064015b60405180910390fd5b6001600160a01b038116620000e85760405162461bcd60e51b815260206004820152601460248201527f496e76616c696420666565207265636569766572000000000000000000000000604482015260640162000087565b612710821115620001305760405162461bcd60e51b815260206004820152601160248201527008ccaca40e4c2e8ca40e8dede40d0d2ced607b1b604482015260640162000087565b600080546001600160a01b03199081163317909155600180546001600160a01b0395861690831617905560029290925560038054919093169116179055620001d1565b80516001600160a01b03811681146200018b57600080fd5b919050565b600080600060608486031215620001a657600080fd5b620001b18462000173565b925060208401519150620001c86040850162000173565b90509250925092565b611c3f80620001e16000396000f3fe6080604052600436106101405760003560e01c806375d2bf60116100b6578063ac4afa381161006f578063ac4afa3814610428578063d7098154146104a8578063e340977a146104c8578063eeca08f0146104e8578063f2fde38b146104fe578063fa27500c1461051e57600080fd5b806375d2bf6014610349578063873f6f9e1461035c5780638da5cb5b14610397578063927fef2e146103b75780639e3079cb146103d7578063a34398a2146103ed57600080fd5b80631f1f897f116101085780631f1f897f1461025f578063202cefd5146102815780632d656ad7146102965780633252789f146102b657806334e7a19f146102d65780635ad82019146102e957600080fd5b8063068bcd8d146101455780631377984f1461017b57806313965c41146101a957806315eb6853146102025780631d7f5e5514610232575b600080fd5b34801561015157600080fd5b50610165610160366004611844565b61053e565b60405161017291906118d9565b60405180910390f35b34801561018757600080fd5b5061019b610196366004611967565b610657565b604051908152602001610172565b3480156101b557600080fd5b506101ea6101c4366004611999565b60066020908152600092835260408084209091529082529020546001600160a01b031681565b6040516001600160a01b039091168152602001610172565b34801561020e57600080fd5b5061022261021d3660046119d7565b610902565b6040519015158152602001610172565b34801561023e57600080fd5b5061019b61024d366004611844565b60096020526000908152604090205481565b34801561026b57600080fd5b5061027f61027a366004611999565b610981565b005b34801561028d57600080fd5b5061027f610b57565b3480156102a257600080fd5b506003546101ea906001600160a01b031681565b3480156102c257600080fd5b506001546101ea906001600160a01b031681565b61027f6102e4366004611844565b610d55565b3480156102f557600080fd5b50610330610304366004611999565b604080516020808201949094528082019290925280518083038201815260609092019052805191012090565b6040516001600160c01b03199091168152602001610172565b61027f610357366004611844565b610f59565b34801561036857600080fd5b50610222610377366004611a01565b600860209081526000928352604080842090915290825290205460ff1681565b3480156103a357600080fd5b506000546101ea906001600160a01b031681565b3480156103c357600080fd5b5061027f6103d2366004611844565b61116c565b3480156103e357600080fd5b5061019b60045481565b3480156103f957600080fd5b50610222610408366004611a01565b600760209081526000928352604080842090915290825290205460ff1681565b34801561043457600080fd5b50610493610443366004611844565b6005602081905260009182526040909120805460018201546002830154600384015460048501549585015460068601546007870154600890970154959794969395929493919260ff909116919089565b60405161017299989796959493929190611a2d565b3480156104b457600080fd5b5061027f6104c3366004611844565b6111e1565b3480156104d457600080fd5b5061027f6104e3366004611a7c565b611438565b3480156104f457600080fd5b5061019b60025481565b34801561050a57600080fd5b5061027f610519366004611a7c565b6114cd565b34801561052a57600080fd5b5061019b6105393660046119d7565b611563565b6105466117e2565b60056000838152602001908152602001600020604051806101400160405290816000820154815260200160018201548152602001600282015481526020016003820154815260200160048201548152602001600582015481526020016006820160009054906101000a900460ff1660038111156105c5576105c561185d565b60038111156105d6576105d661185d565b815260200160078201548152602001600882015481526020016009820180548060200260200160405190810160405280929190818152602001828054801561064757602002820191906000526020600020905b81546001600160a01b03168152600190910190602001808311610629575b5050505050815250509050919050565b600080546001600160a01b0316331461068b5760405162461bcd60e51b815260040161068290611a9e565b60405180910390fd5b600085116106db5760405162461bcd60e51b815260206004820152601c60248201527f5072696365206d7573742062652067726561746572207468616e2030000000006044820152606401610682565b600084116107375760405162461bcd60e51b815260206004820152602360248201527f546f74616c20736861726573206d75737420626520677265617465722074686160448201526206e20360ec1b6064820152608401610682565b600082116107935760405162461bcd60e51b815260206004820152602360248201527f57696e6e657220636f756e74206d75737420626520677265617465722074686160448201526206e20360ec1b6064820152608401610682565b600a8211156107e45760405162461bcd60e51b815260206004820152601d60248201527f57696e6e657220636f756e742063616e6e6f74206578636565642031300000006044820152606401610682565b838211156108445760405162461bcd60e51b815260206004820152602760248201527f57696e6e657220636f756e742063616e6e6f742065786365656420746f74616c6044820152662073686172657360c81b6064820152608401610682565b6004805490600061085483611ad7565b909155505060045460006108688542611af0565b6000838152600560208181526040808420878155600181018d9055600281018c905560038101949094556004840189905591830184905560068301805460ff1916905581518b81529081018a9052908101879052606081018390529192509083907fc228886916f5b5259577f000954e8de5f0fc9f31e8fea81c144baeae804343f49060800160405180910390a250909695505050505050565b6000818152600560205260408120815b600982015481101561097457846001600160a01b031682600901828154811061093d5761093d611b03565b6000918252602090912001546001600160a01b0316036109625760019250505061097b565b8061096c81611ad7565b915050610912565b5060009150505b92915050565b6001546001600160a01b031633146109cd5760405162461bcd60e51b815260206004820152600f60248201526e139bdd0814ddda5d18da189bd85c99608a1b6044820152606401610682565b60008281526009602052604090205480610a1e5760405162461bcd60e51b8152602060048201526012602482015271125b9d985b1a59081c995c5d595cdd08125160721b6044820152606401610682565b60008181526005602052604090206002600682015460ff166003811115610a4757610a4761185d565b14610a945760405162461bcd60e51b815260206004820152601c60248201527f506f6f6c206973206e6f7420696e2064726177696e67207374617465000000006044820152606401610682565b610a9e82846115f8565b600081600101548260030154610ab49190611b19565b9050600061271060025483610ac99190611b19565b610ad39190611b46565b90506000610ae18284611b5a565b90506000846004015482610af59190611b46565b6008860181905560068601805460ff1916600317905560405190915086907f17f9ee3bf6b7d4565f0bfee24e3eb38832bc9a1cea643aba9fcf11041d0231d090610b459060098901908590611b6d565b60405180910390a25050505050505050565b6000546001600160a01b03163314610b815760405162461bcd60e51b815260040161068290611a9e565b47600060015b6004548111610c595760008181526005602052604090206003600682015460ff166003811115610bb957610bb961185d565b03610c465760005b6009820154811015610c4457600083815260086020526040812060098401805491929184908110610bf457610bf4611b03565b60009182526020808320909101546001600160a01b0316835282019290925260400190205460ff16610c32576008820154610c2f9085611af0565b93505b80610c3c81611ad7565b915050610bc1565b505b5080610c5181611ad7565b915050610b87565b50808211610ca95760405162461bcd60e51b815260206004820152601b60248201527f4e6f20706c6174666f726d2066656520746f20776974686472617700000000006044820152606401610682565b6000610cb58284611b5a565b6003546040519192506000916001600160a01b039091169083908381818185875af1925050503d8060008114610d07576040519150601f19603f3d011682016040523d82523d6000602084013e610d0c565b606091505b5050905080610d4f5760405162461bcd60e51b815260206004820152600f60248201526e151c985b9cd9995c8819985a5b1959608a1b6044820152606401610682565b50505050565b600081815260056020526040812090600682015460ff166003811115610d7d57610d7d61185d565b14610dbf5760405162461bcd60e51b8152602060048201526012602482015271506f6f6c206973206e6f742061637469766560701b6044820152606401610682565b80600101543414610e125760405162461bcd60e51b815260206004820152601860248201527f496e636f7272656374207061796d656e7420616d6f756e7400000000000000006044820152606401610682565b600082815260076020908152604080832033845290915290205460ff1615610e735760405162461bcd60e51b8152602060048201526014602482015273105b1c9958591e481c185c9d1a58da5c185d195960621b6044820152606401610682565b8060020154816003015410610ebd5760405162461bcd60e51b815260206004820152601060248201526f141bdbdb081a5cc81cdbdb19081bdd5d60821b6044820152606401610682565b600381018054906000610ecf83611ad7565b909155505060038101546000838152600660209081526040808320848452825280832080546001600160a01b0319163390811790915586845260078352818420818552835292819020805460ff191660011790555183815285917fdbaaf4c87ce30816c961a81d110622a3227ede77953d4383d514ff88ab2e0fd3910160405180910390a3505050565b6000546001600160a01b03163314610f835760405162461bcd60e51b815260040161068290611a9e565b600081815260056020526040812090600682015460ff166003811115610fab57610fab61185d565b14610fed5760405162461bcd60e51b8152602060048201526012602482015271506f6f6c206973206e6f742061637469766560701b6044820152606401610682565b806005015442101561103a5760405162461bcd60e51b8152602060048201526016602482015275141bdbdb081a185cc81b9bdd08195b991959081e595d60521b6044820152606401610682565b60008160030154116110805760405162461bcd60e51b815260206004820152600f60248201526e4e6f207061727469636970616e747360881b6044820152606401610682565b60068101805460ff19166001908117909155546040805163f8413b0760e01b815290516001600160a01b0390921691600091839163f8413b079134916004808301926020929190829003018185885af11580156110e1573d6000803e3d6000fd5b50505050506040513d601f19601f820116820180604052508101906111069190611bc6565b60068401805460ff1916600217905560078401819055600081815260096020908152604091829020879055905182815291925085917f9be8dbc946134042a88e760f959eae75940eaab3b2891b98f81b905e82c57b2d910160405180910390a250505050565b6000546001600160a01b031633146111965760405162461bcd60e51b815260040161068290611a9e565b6127108111156111dc5760405162461bcd60e51b815260206004820152601160248201527008ccaca40e4c2e8ca40e8dede40d0d2ced607b1b6044820152606401610682565b600255565b60008181526005602052604090206003600682015460ff16600381111561120a5761120a61185d565b1461124d5760405162461bcd60e51b8152602060048201526013602482015272141bdbdb081a5cc81b9bdd081cd95d1d1b1959606a1b6044820152606401610682565b6000805b60098301548110156112b157336001600160a01b031683600901828154811061127c5761127c611b03565b6000918252602090912001546001600160a01b03160361129f57600191506112b1565b806112a981611ad7565b915050611251565b50806112ee5760405162461bcd60e51b815260206004820152600c60248201526b2737ba1030903bb4b73732b960a11b6044820152606401610682565b600083815260086020908152604080832033845290915290205460ff161561134a5760405162461bcd60e51b815260206004820152600f60248201526e105b1c9958591e4818db185a5b5959608a1b6044820152606401610682565b6000838152600860208181526040808420338086529252808420805460ff1916600117905591850154915191929183908381818185875af1925050503d80600081146113b2576040519150601f19603f3d011682016040523d82523d6000602084013e6113b7565b606091505b50509050806113fa5760405162461bcd60e51b815260206004820152600f60248201526e151c985b9cd9995c8819985a5b1959608a1b6044820152606401610682565b604051828152339086907f4aa95f981a8337cb337de335b965507da0879c3b49f799d20058e913f5ad2c269060200160405180910390a35050505050565b6000546001600160a01b031633146114625760405162461bcd60e51b815260040161068290611a9e565b6001600160a01b0381166114ab5760405162461bcd60e51b815260206004820152601060248201526f24b73b30b634b2103932b1b2b4bb32b960811b6044820152606401610682565b600380546001600160a01b0319166001600160a01b0392909216919091179055565b6000546001600160a01b031633146114f75760405162461bcd60e51b815260040161068290611a9e565b6001600160a01b0381166115415760405162461bcd60e51b815260206004820152601160248201527024b73b30b634b2103732bb9037bbb732b960791b6044820152606401610682565b600080546001600160a01b0319166001600160a01b0392909216919091179055565b60008181526007602090815260408083206001600160a01b038616845290915281205460ff166115955750600061097b565b600082815260056020526040902060015b816003015481116109745760008481526006602090815260408083208484529091529020546001600160a01b038087169116036115e657915061097b9050565b806115f081611ad7565b9150506115a6565b6000828152600560205260409020600381015460048201548082101561161b5750805b60008167ffffffffffffffff81111561163657611636611bdf565b60405190808252806020026020018201604052801561165f578160200160208202803683370190505b5090506000805b838110156117d857600085888360405160200161168d929190918252602082015260400190565b6040516020818303038152906040528051906020012060001c6116b09190611bf5565b6116bb906001611af0565b9050600160005b8180156116ce57508781105b15611747576000915060005b8581101561173457838782815181106116f5576116f5611b03565b60200260200101510361172257600192506117108985611bf5565b61171b906001611af0565b9350611734565b8061172c81611ad7565b9150506116da565b508061173f81611ad7565b9150506116c2565b8286868151811061175a5761175a611b03565b60209081029190910101528461176f81611ad7565b60008d81526006602090815260408083209783529681529581205460098d0180546001810182559083529690912090950180546001600160a01b0319166001600160a01b0390961695909517909455509193508291506117d0905081611ad7565b915050611666565b5050505050505050565b6040518061014001604052806000815260200160008152602001600081526020016000815260200160008152602001600081526020016000600381111561182b5761182b61185d565b8152600060208201819052604082015260609081015290565b60006020828403121561185657600080fd5b5035919050565b634e487b7160e01b600052602160045260246000fd5b6004811061189157634e487b7160e01b600052602160045260246000fd5b9052565b600081518084526020808501945080840160005b838110156118ce5781516001600160a01b0316875295820195908201906001016118a9565b509495945050505050565b6020815281516020820152602082015160408201526040820151606082015260608201516080820152608082015160a082015260a082015160c0820152600060c083015161192a60e0840182611873565b5060e083015161010083810191909152830151610120808401919091528301516101408084015261195f610160840182611895565b949350505050565b6000806000806080858703121561197d57600080fd5b5050823594602084013594506040840135936060013592509050565b600080604083850312156119ac57600080fd5b50508035926020909101359150565b80356001600160a01b03811681146119d257600080fd5b919050565b600080604083850312156119ea57600080fd5b6119f3836119bb565b946020939093013593505050565b60008060408385031215611a1457600080fd5b82359150611a24602084016119bb565b90509250929050565b6000610120820190508a82528960208301528860408301528760608301528660808301528560a0830152611a6460c0830186611873565b60e08201939093526101000152979650505050505050565b600060208284031215611a8e57600080fd5b611a97826119bb565b9392505050565b6020808252600990820152682737ba1037bbb732b960b91b604082015260600190565b634e487b7160e01b600052601160045260246000fd5b600060018201611ae957611ae9611ac1565b5060010190565b8082018082111561097b5761097b611ac1565b634e487b7160e01b600052603260045260246000fd5b808202811582820484141761097b5761097b611ac1565b634e487b7160e01b600052601260045260246000fd5b600082611b5557611b55611b30565b500490565b8181038181111561097b5761097b611ac1565b6000604082016040835280855480835260608501915086600052602092508260002060005b82811015611bb75781546001600160a01b031684529284019260019182019101611b92565b50505092019290925292915050565b600060208284031215611bd857600080fd5b5051919050565b634e487b7160e01b600052604160045260246000fd5b600082611c0457611c04611b30565b50069056fea264697066735822122066252d82d4fb45abe80eea9e23af9b2a2c895a7da9c9e274742badec1cd63e1c64736f6c63430008140033",
  "linkReferences": {},
  "deployedLinkReferences": {}
}